:02000000E92AEB
:10000600710DF80DF90D7408F8027508031C750FCB
:10001600F902F00DF10D0F30FC00710DF80DF90D20
:100026007408701C1C28F8027508031C750FF90269
:100036002128F80775080318750FF907F00DF10D5B
:10004600FC0B102870182D287408F807750803187B
:08005600750FF9070000080016
:10005E00831203137408003A031D3E287508003AF4
:10006E00031D3E28FF30F0007F30F10097288312E9
:10007E000313FD01F901F80171087004031900342E
:10008E0071087506FA00FA1BFD09FB01F51F5428CD
:10009E00F409F509F40A0319F50AF11F5B28F009B2
:1000AE00F109F00A0319F10A71087504FA00FA1B36
:1000BE00702803207B188328FD1F0034F009F109F6
:1000CE00F00A0319F10AF809F909F80A0319F90AED
:1000DE000034F51F7F28F11B7B287108F90070088A
:1000EE00F800F101F0016328F101F001F00A00348B
:1000FE00F109F009FB0A6028F80A0319F90A7408D5
:10010E007802031D632875087902031D6328F9011F
:10011E00F801F00A0319F10AF11F63280000FF34F9
:02012E000800C7
:0E0130008312031328088A00270882000800A3
:10013E00033083120313A2000030A30005184A29CE
:10014E002608773A031DF928051DC1288C30880032
:10015E0086010F30870087010230FB000430FC005F
:10016E00BA30FD00FD0BB928FC0BB928FB0BB928E2
:10017E000000F8288A3088000430F1002208F000D0
:10018E0071080319CE28F00D7010FF3EC8287008B4
:10019E002207860005308700870186010A30870016
:1001AE0087010B30FB002630FC005D30FD00FD0B9F
:1001BE00DE28FC0BDE28FB0BDE28000000000130E1
:1001CE00A202031CA30300302306031DF0280030F7
:1001DE002206031DF8280330A2000030A30073305E
:1001EE00A600462905190F29A130880086010F3077
:1001FE00870087010230FB000430FC00BA30FD009E
:10020E00FD0B0729FC0B0729FB0B072900004629CC
:10021E00913088000430F1002208F00071080319B3
:10022E001C29F00D7010FF3E16297008220786005B
:10023E0005308700870186010A30870087010B3061
:10024E00FB002630FC005D30FD00FD0B2C29FC0B65
:10025E002C29FB0B2C29000000000130A202031CEC
:10026E00A30300302306031D3E2900302206031D82
:10027E0046290330A2000030A3007730A600851C6B
:08028E0049294A29A5280800AE
:1002960098208A110A128000840AA70A0319A80A5C
:0802A600F003031D4B290800C1
:1002AE00173083120313A0000030A1000F30A400FA
:1002BE000030A5000518E82A2608773A031D262ADD
:1002CE008030F000803021067002031D7029200856
:1002DE00033C0318CB298C3088000A30F400003020
:1002EE00F5002008F0002108F1002F207808F0001A
:1002FE007908F1000430F2007008A90072080319A1
:10030E008C29A90D2910FF3E862903302002AA0050
:10031E000030031C013E2102AB000A30F400003015
:10032E00F5002A08F0002B08F1002F207808F000C5
:10033E007908F100700829078600053087008701CB
:10034E000A30F4000030F5002008F0002108F1001A
:10035E002F200430F2007008A90072080319BB297F
:10036E00A90D2910FF3EB5290A30F4000030F50022
:10037E002A08F0002B08F1002F20700829078600AC
:10038E000A3087008701052A8A3088000A30F40077
:10039E000030F5002008F0002108F1002F20780829
:1003AE00F0007908F1000430F3007008F2007308D1
:1003BE000319E529F20D7210FF3EDF29700872074E
:1003CE0086000530870087010A30F4000030F50002
:1003DE002008F0002108F1002F200430F3007008EF
:1003EE00F20073080319FF29F20D7210FF3EF9296E
:1003FE007008720786000A30870087010630FB00FE
:10040E001330FC00AD30FD00FD0B0B2AFC0B0B2A4C
:10041E00FB0B0B2A000000000130A002031CA103FD
:10042E0000302106031D1D2A00302006031D252A3B
:10043E001730A0000030A1007330A600E42A8030EF
:10044E00F000803025067002031D2F2A2408033C7D
:10045E0003188A2AA130880003302402AA00003033
:10046E00031C013E2502AB000A30F4000030F500FB
:10047E002A08F0002B08F1002F207808F0007908E8
:10048E00F1000430F2007008A90072080319532A13
:10049E00A90D2910FF3E4D2A0A30F4000030F50058
:1004AE002408F0002508F1002F207808F0007908C4
:1004BE00F1007008290786000530870087010A3091
:1004CE00F4000030F5002A08F0002B08F1002F2070
:1004DE000430F2007008A900720803197A2AA90DD7
:1004EE002910FF3E742A0A30F4000030F50024086B
:1004FE00F0002508F1002F207008290786000A3029
:10050E0087008701C42A913088000A30F400003039
:10051E00F5002408F0002508F1002F207808F000DF
:10052E007908F1000430F3007008F2007308031923
:10053E00A42AF20D7210FF3E9E2A700872078600E2
:10054E000530870087010A30F4000030F5002408DA
:10055E00F0002508F1002F200430F3007008F2009F
:10056E0073080319BE2AF20D7210FF3EB82A7008E6
:10057E00720786000A30870087010630FB001330B1
:10058E00FC00AD30FD00FD0BCA2AFC0BCA2AFB0B8A
:10059E00CA2A000000000130A402031CA50300308B
:1005AE002506031DDC2A00302406031DE42A17301D
:1005BE00A4000030A5007730A6008518E72AE82AA7
:0405CE006129080097
:1005D200173083120313A000A1010330A200A3016C
:1005E2000F30A400A5017730A600073083169F00C4
:1005F2000514851405158601831286018316870169
:100602008312870183168801831288010518102B33
:100612008817851C0E2B57210F2B9F20142B860128
:0A062200FF3087008801072B152B1D
:02400E004A2F37
:00000001FF
